{
  "_format": "hh-sol-artifact-1",
  "contractName": "Faucet",
  "sourceName": "contracts/Faucet.sol",
  "abi": [
    {
      "inputs": [
        {
          "internalType": "address",
          "name": "tokenAddress",
          "type": "address"
        },
        {
          "internalType": "address",
          "name": "owner_",
          "type": "address"
        },
        {
          "internalType": "uint256",
          "name": "nbToken_",
          "type": "uint256"
        }
      ],
      "stateMutability": "nonpayable",
      "type": "constructor"
    },
    {
      "anonymous": false,
      "inputs": [
        {
          "indexed": true,
          "internalType": "address",
          "name": "previousOwner",
          "type": "address"
        },
        {
          "indexed": true,
          "internalType": "address",
          "name": "newOwner",
          "type": "address"
        }
      ],
      "name": "OwnershipTransferred",
      "type": "event"
    },
    {
      "anonymous": false,
      "inputs": [
        {
          "indexed": true,
          "internalType": "address",
          "name": "sender",
          "type": "address"
        }
      ],
      "name": "Sent",
      "type": "event"
    },
    {
      "inputs": [],
      "name": "askToken",
      "outputs": [],
      "stateMutability": "nonpayable",
      "type": "function"
    },
    {
      "inputs": [
        {
          "internalType": "address",
          "name": "account",
          "type": "address"
        }
      ],
      "name": "lastSend",
      "outputs": [
        {
          "internalType": "uint256",
          "name": "",
          "type": "uint256"
        }
      ],
      "stateMutability": "view",
      "type": "function"
    },
    {
      "inputs": [],
      "name": "nbToken",
      "outputs": [
        {
          "internalType": "uint256",
          "name": "",
          "type": "uint256"
        }
      ],
      "stateMutability": "view",
      "type": "function"
    },
    {
      "inputs": [],
      "name": "owner",
      "outputs": [
        {
          "internalType": "address",
          "name": "",
          "type": "address"
        }
      ],
      "stateMutability": "view",
      "type": "function"
    },
    {
      "inputs": [],
      "name": "renounceOwnership",
      "outputs": [],
      "stateMutability": "nonpayable",
      "type": "function"
    },
    {
      "inputs": [],
      "name": "reserve",
      "outputs": [
        {
          "internalType": "address",
          "name": "",
          "type": "address"
        }
      ],
      "stateMutability": "view",
      "type": "function"
    },
    {
      "inputs": [],
      "name": "token",
      "outputs": [
        {
          "internalType": "contract Token",
          "name": "",
          "type": "address"
        }
      ],
      "stateMutability": "view",
      "type": "function"
    },
    {
      "inputs": [
        {
          "internalType": "address",
          "name": "newOwner",
          "type": "address"
        }
      ],
      "name": "transferOwnership",
      "outputs": [],
      "stateMutability": "nonpayable",
      "type": "function"
    }
  ],
  "bytecode": "0x60806040523480156200001157600080fd5b50604051620014b1380380620014b1833981810160405281019062000037919062000477565b6000620000496200022d60201b60201c565b9050806000806101000a81548173ffffffffffffffffffffffffffffffffffffffff021916908373ffffffffffffffffffffffffffffffffffffffff1602179055508073ffffffffffffffffffffffffffffffffffffffff16600073ffffffffffffffffffffffffffffffffffffffff167f8be0079c531659141344cd1fd0a4f28419497f9722a3daafe3b4186f6b6457e060405160405180910390a35082600160006101000a81548173ffffffffffffffffffffffffffffffffffffffff021916908373ffffffffffffffffffffffffffffffffffffffff160217905550600160009054906101000a900473ffffffffffffffffffffffffffffffffffffffff1673ffffffffffffffffffffffffffffffffffffffff1663cd3293de6040518163ffffffff1660e01b815260040160206040518083038186803b1580156200019157600080fd5b505afa158015620001a6573d6000803e3d6000fd5b505050506040513d601f19601f82011682018060405250810190620001cc91906200044b565b600260006101000a81548173ffffffffffffffffffffffffffffffffffffffff021916908373ffffffffffffffffffffffffffffffffffffffff1602179055506200021d826200023560201b60201c565b806004819055505050506200065a565b600033905090565b620002456200022d60201b60201c565b73ffffffffffffffffffffffffffffffffffffffff166200026b620003f460201b60201c565b73ffffffffffffffffffffffffffffffffffffffff1614620002c4576040517f08c379a0000000000000000000000000000000000000000000000000000000008152600401620002bb906200053d565b60405180910390fd5b600073ffffffffffffffffffffffffffffffffffffffff168173ffffffffffffffffffffffffffffffffffffffff16141562000337576040517f08c379a00000000000000000000000000000000000000000000000000000000081526004016200032e906200051b565b60405180910390fd5b8073ffffffffffffffffffffffffffffffffffffffff1660008054906101000a900473ffffffffffffffffffffffffffffffffffffffff1673ffffffffffffffffffffffffffffffffffffffff167f8be0079c531659141344cd1fd0a4f28419497f9722a3daafe3b4186f6b6457e060405160405180910390a3806000806101000a81548173ffffffffffffffffffffffffffffffffffffffff021916908373ffffffffffffffffffffffffffffffffffffffff16021790555050565b60008060009054906101000a900473ffffffffffffffffffffffffffffffffffffffff16905090565b6000815190506200042e8162000626565b92915050565b600081519050620004458162000640565b92915050565b6000602082840312156200045e57600080fd5b60006200046e848285016200041d565b91505092915050565b6000806000606084860312156200048d57600080fd5b60006200049d868287016200041d565b9350506020620004b0868287016200041d565b9250506040620004c38682870162000434565b9150509250925092565b6000620004dc6026836200055f565b9150620004e982620005ae565b604082019050919050565b6000620005036020836200055f565b91506200051082620005fd565b602082019050919050565b600060208201905081810360008301526200053681620004cd565b9050919050565b600060208201905081810360008301526200055881620004f4565b9050919050565b600082825260208201905092915050565b60006200057d8262000584565b9050919050565b600073ffffffffffffffffffffffffffffffffffffffff82169050919050565b6000819050919050565b7f4f776e61626c653a206e6577206f776e657220697320746865207a65726f206160008201527f6464726573730000000000000000000000000000000000000000000000000000602082015250565b7f4f776e61626c653a2063616c6c6572206973206e6f7420746865206f776e6572600082015250565b620006318162000570565b81146200063d57600080fd5b50565b6200064b81620005a4565b81146200065757600080fd5b50565b610e47806200066a6000396000f3fe608060405234801561001057600080fd5b50600436106100885760003560e01c8063e834b46d1161005b578063e834b46d146100dd578063f2fde38b1461010d578063f9b7f8a914610129578063fc0c546a1461014757610088565b8063715018a61461008d5780638da5cb5b146100975780639541047e146100b5578063cd3293de146100bf575b600080fd5b610095610165565b005b61009f61029f565b6040516100ac9190610a3d565b60405180910390f35b6100bd6102c8565b005b6100c76102d3565b6040516100d49190610a3d565b60405180910390f35b6100f760048036038101906100f291906108e6565b6102fd565b6040516101049190610b4a565b60405180910390f35b610127600480360381019061012291906108e6565b610346565b005b6101316104ef565b60405161013e9190610b4a565b60405180910390f35b61014f6104f9565b60405161015c9190610a8f565b60405180910390f35b61016d610523565b73ffffffffffffffffffffffffffffffffffffffff1661018b61029f565b73ffffffffffffffffffffffffffffffffffffffff16146101e1576040517f08c379a00000000000000000000000000000000000000000000000000000000081526004016101d890610b2a565b60405180910390fd5b600073ffffffffffffffffffffffffffffffffffffffff1660008054906101000a900473ffffffffffffffffffffffffffffffffffffffff1673ffffffffffffffffffffffffffffffffffffffff167f8be0079c531659141344cd1fd0a4f28419497f9722a3daafe3b4186f6b6457e060405160405180910390a360008060006101000a81548173ffffffffffffffffffffffffffffffffffffffff021916908373ffffffffffffffffffffffffffffffffffffffff160217905550565b60008060009054906101000a900473ffffffffffffffffffffffffffffffffffffffff16905090565b6102d13361052b565b565b6000600260009054906101000a900473ffffffffffffffffffffffffffffffffffffffff16905090565b6000600360008373ffffffffffffffffffffffffffffffffffffffff1673ffffffffffffffffffffffffffffffffffffffff168152602001908152602001600020549050919050565b61034e610523565b73ffffffffffffffffffffffffffffffffffffffff1661036c61029f565b73ffffffffffffffffffffffffffffffffffffffff16146103c2576040517f08c379a00000000000000000000000000000000000000000000000000000000081526004016103b990610b2a565b60405180910390fd5b600073ffffffffffffffffffffffffffffffffffffffff168173ffffffffffffffffffffffffffffffffffffffff161415610432576040517f08c379a000000000000000000000000000000000000000000000000000000000815260040161042990610aca565b60405180910390fd5b8073ffffffffffffffffffffffffffffffffffffffff1660008054906101000a900473ffffffffffffffffffffffffffffffffffffffff1673ffffffffffffffffffffffffffffffffffffffff167f8be0079c531659141344cd1fd0a4f28419497f9722a3daafe3b4186f6b6457e060405160405180910390a3806000806101000a81548173ffffffffffffffffffffffffffffffffffffffff021916908373ffffffffffffffffffffffffffffffffffffffff16021790555050565b6000600454905090565b6000600160009054906101000a900473ffffffffffffffffffffffffffffffffffffffff16905090565b600033905090565b3373ffffffffffffffffffffffffffffffffffffffff1661054a61029f565b73ffffffffffffffffffffffffffffffffffffffff1614156105a1576040517f08c379a000000000000000000000000000000000000000000000000000000000815260040161059890610b0a565b60405180910390fd5b426203f480600360003373ffffffffffffffffffffffffffffffffffffffff1673ffffffffffffffffffffffffffffffffffffffff168152602001908152602001600020546105f09190610b76565b10610630576040517f08c379a000000000000000000000000000000000000000000000000000000000815260040161062790610aaa565b60405180910390fd5b6000600160009054906101000a900473ffffffffffffffffffffffffffffffffffffffff1673ffffffffffffffffffffffffffffffffffffffff166370a08231600260009054906101000a900473ffffffffffffffffffffffffffffffffffffffff166040518263ffffffff1660e01b81526004016106af9190610a3d565b60206040518083038186803b1580156106c757600080fd5b505afa1580156106db573d6000803e3d6000fd5b505050506040513d601f19601f820116820180604052508101906106ff9190610938565b9050806004541115610746576040517f08c379a000000000000000000000000000000000000000000000000000000000815260040161073d90610aea565b60405180910390fd5b42600360008473ffffffffffffffffffffffffffffffffffffffff1673ffffffffffffffffffffffffffffffffffffffff16815260200190815260200160002081905550600160009054906101000a900473ffffffffffffffffffffffffffffffffffffffff1673ffffffffffffffffffffffffffffffffffffffff166323b872dd600260009054906101000a900473ffffffffffffffffffffffffffffffffffffffff16846004546040518463ffffffff1660e01b815260040161080d93929190610a58565b602060405180830381600087803b15801561082757600080fd5b505af115801561083b573d6000803e3d6000fd5b505050506040513d601f19601f8201168201806040525081019061085f919061090f565b508173ffffffffffffffffffffffffffffffffffffffff167fad9eefc313550eb26658f0b86c43d562b31167aa21d08ad7c5989630d6f0cd1c60405160405180910390a25050565b6000813590506108b681610dcc565b92915050565b6000815190506108cb81610de3565b92915050565b6000815190506108e081610dfa565b92915050565b6000602082840312156108f857600080fd5b6000610906848285016108a7565b91505092915050565b60006020828403121561092157600080fd5b600061092f848285016108bc565b91505092915050565b60006020828403121561094a57600080fd5b6000610958848285016108d1565b91505092915050565b61096a81610bcc565b82525050565b61097981610c14565b82525050565b600061098c602983610b65565b915061099782610c67565b604082019050919050565b60006109af602683610b65565b91506109ba82610cb6565b604082019050919050565b60006109d2602b83610b65565b91506109dd82610d05565b604082019050919050565b60006109f5602883610b65565b9150610a0082610d54565b604082019050919050565b6000610a18602083610b65565b9150610a2382610da3565b602082019050919050565b610a3781610c0a565b82525050565b6000602082019050610a526000830184610961565b92915050565b6000606082019050610a6d6000830186610961565b610a7a6020830185610961565b610a876040830184610a2e565b949350505050565b6000602082019050610aa46000830184610970565b92915050565b60006020820190508181036000830152610ac38161097f565b9050919050565b60006020820190508181036000830152610ae3816109a2565b9050919050565b60006020820190508181036000830152610b03816109c5565b9050919050565b60006020820190508181036000830152610b23816109e8565b9050919050565b60006020820190508181036000830152610b4381610a0b565b9050919050565b6000602082019050610b5f6000830184610a2e565b92915050565b600082825260208201905092915050565b6000610b8182610c0a565b9150610b8c83610c0a565b9250827fffffffffffffffffffffffffffffffffffffffffffffffffffffffffffffffff03821115610bc157610bc0610c38565b5b828201905092915050565b6000610bd782610bea565b9050919050565b60008115159050919050565b600073ffffffffffffffffffffffffffffffffffffffff82169050919050565b6000819050919050565b6000610c1f82610c26565b9050919050565b6000610c3182610bea565b9050919050565b7f4e487b7100000000000000000000000000000000000000000000000000000000600052601160045260246000fd5b7f466175636574203a206861766520746f20776169742033206461797320746f2060008201527f61736b20616761696e0000000000000000000000000000000000000000000000602082015250565b7f4f776e61626c653a206e6577206f776e657220697320746865207a65726f206160008201527f6464726573730000000000000000000000000000000000000000000000000000602082015250565b7f466175636574203a20646f206e6f74206861766520656e6f7567687420746f6b60008201527f656e7320746f2067697665000000000000000000000000000000000000000000602082015250565b7f466175636574203a206f776e65722063616e206e6f742075736520746869732060008201527f66756e6374696f6e000000000000000000000000000000000000000000000000602082015250565b7f4f776e61626c653a2063616c6c6572206973206e6f7420746865206f776e6572600082015250565b610dd581610bcc565b8114610de057600080fd5b50565b610dec81610bde565b8114610df757600080fd5b50565b610e0381610c0a565b8114610e0e57600080fd5b5056fea26469706673582212204d0d737055f2be50cf2f0df49391e41b950a24b4c7f2c37794d6a77a5c97a59e64736f6c63430008040033",
  "linkReferences": {},
  "deployedLinkReferences": {}
}